:0C0000000C9447000C9400000C940000CD
:10000C000C9400000C9400000C9400000C94000064
:10001C000C9474000C9400000C9400000C940000E0
:10002C000C9400000C9400000C9400000C94000044
:10003C000C9400000C9400000C9400000C94000034
:10004C000C9400000C94000017003A000000000013
:10005C004C434420436C6F636B0001002D4E414EAA
:10006C0000494E46000080C00800040054000A00FD
:10007C0060025C0001006A02660002006E027200FF
:10008C000000F894EE27ECBBF1E0FBBFEBBFE5BF43
:10009C008DE0A2E0BB27ED938A95E9F780E098E02C
:1000AC00A0E6ED930197E9F7E4E7F0E085919591EF
:1000BC00009761F0A591B59105901590BF01F001E5
:1000CC0005900D920197E1F7FB01F0CFEFE5EDBF45
:1000DC00E8E0EEBFC0E6D2E00C94A500EA93FA93F8
:1000EC00EFB7EA93F50131965F01E4E6F0E0EA152B
:1000FC00FB0529F4F40131964F01AA24BB24ECE34F
:10010C00F0E0E815F90529F488249924F3013196D7
:10011C003F01ECE3F0E0E615F70529F466247724BB
:10012C00F20131962F01E7E1F0E0E415F50514F446
:10013C0044245524E991EFBFF991E991189524973E
:10014C00E0E0EABBEBBBE7BBE8BBEFEFE4BBE0E016
:10015C00E5BBE0E2E1BBE0E0E2BBE3BFE2BFECBF4A
:10016C00E0E4EFBDEDE0EEBDE0E0EDBDECBDE7BDE4
:10017C00E6BDEBBDEDE4EABDE0E0E9BDE8BDE2BD06
:10018C00E5BDE4BDE3BDE0E1E9BFA0E10E94AE0145
:10019C00E4E0EA93A0E00E946D01A0E6B2E00E94C8
:1001AC009D017894E3E00E94DD015A924A92DE01AF
:1001BC0013960E941F01DE0111960E94E101E6E0F8
:1001CC000E94DD01AAE30E948601E7E00E94DD01A6
:1001DC007A926A92DE0114960E941F01DE01129639
:1001EC000E94E101E9E00E94DD01AAE30E94860180
:1001FC00EAE00E94DD019A928A92DE0115960E9435
:10020C001F01DE0113960E94E101ECE00E94DD016A
:10021C00AAE30E948601EDE00E94DD01BA92AA9247
:10022C00DE0112960E941F01DE010E94E101BACF8D
:10023C00FFCFBA93AA93A991B991E991F99130960C
:10024C002AF4E095F09531966DE26D93E89480E197
:10025C0097E20DD088EE93E00AD084E6992707D078
:10026C008AE005D06E2F10D066276C930895662710
:10027C00E817F90720F06395E81BF90BC9F766231B
:10028C0011F416F008956894605D6D930895AA9327
:10029C00E5B3EF70AE2FE881E07FEA2BE5BB8DE094
:1002AC008A95F1F7AA9A8DE08A95F1F7AA988DE0D4
:1002BC008A95F1F77AC0AA93A881E9DFE881E295E3
:1002CC00E883A881E4DF85E88A95F1F76EC0AA93EC
:1002DC00E881F0E0E259FD4FE081A981AE0FEBDF40
:1002EC00D980C88022960895A2E00E94E601ACE075
:1002FC00E2DFA1E00E94E601E0E0CE2EDE2E0895C2
:10030C00AA93A881AA3021F0E0917202DE1648F07F
:10031C00E0E0EA93C394AC2DDADFA881AA3009F4AB
:10032C0044C0D394A89AA881C6DFA8983EC0BA93BB
:10033C00AA931A93A981BA81ED91A983BA831E2F2E
:10034C00E03019F0A12FDCDFF5CF1881239608954A
:10035C00AA93E4B3E06FE4BBA29AA09AA19AAA98DC
:10036C00A898A998E881E0937202E058E093700293
:10037C00E881E054E0937102A4E1B0E00E94F40142
:10038C000E94EC010E94EC010E94EC01A0E27FDFD4
:10039C0088EC90E00197F1F7A8E28DDFA4E08BDF09
:1003AC00A5E889DFA6E087DF9FDF21960895EA9311
:1003BC00A1E00C946D010E949D01A0E20C948601B9
:1003CC000E946101A3E0B0E00C94F401A0E30E9450
:1003DC004D0188EC90E00197F1F70895109639F0F3
:1003EC0080ED97E00197F1F7A8951197C9F708955B
:00000001FF
